:100000000C94E0000C9408010C9408010C945B071C
:100010000C945B070C945B070C9408010C9408018A
:100020000C9408010C9408010C9408010C9408012C
:100030000C9408010C9408010C9408010C9408011C
:100040000C94DF090C9408010C9406020C94E00156
:100050000C9408010C9408010C9408010C940801FC
:100060000C9408010C94080100407A10F35A00A087
:10007000724E18090010A5D4E80000E87648170071
:1000800000E40B54020000CA9A3B000000E1F505B1
:10009000000080969800000040420F000000A086FB
:1000A00001000000102700000000E803000000002D
:1000B0006400000000000A000000000001000000D1
:1000C00000002C76D888DC674F0823DFC1DFAE59EB
:1000D000E1B1B796E5E3E453C63AE651997696E87E
:1000E000E6C28426EB898C9B62ED407C6FFCEFBC02
:1000F0009C9F40F2BAA56FA5F490055A2AF75C932D
:100100006B6CF9676DC11BFCE0E40D47FEF520E662
:10011000B500D0ED902E0300943577050080841E45
:10012000080000204E0A000000C80C333333330FA0
:10013000986E12831141EF8D2114893BE65516CF3D
:10014000FEE6DB18D1844B381BF77C1D901DA4BB49
:10015000E424203284725E228100C9F124ECA1E5FE
:100160003D27000000080002010000030407000012
:10017000000000000000000000002300260029000D
:1001800000000000240027002A00000000002500D5
:1001900028002B00040404040404040402020202E4
:1001A000020203030303030301020408102040803A
:1001B0000102040810200102040810205C0FF30E55
:1001C00011241FBECFEFD8E0DEBFCDBF12E0A0E00C
:1001D000B1E0E8E7F1E302C005900D92AC37B1075A
:1001E000D9F723E0ACE7B2E001C01D92A53BB2070E
:1001F000E1F710E0CFEDD0E004C02197FE010E94AE
:10020000EF12CE3DD107C9F70E94290A0C94AF180E
:100210000C940000CF92DF92EF92FF920F931F9306
:10022000CF93DF936C017A018B01C0E0D0E0CE1553
:10023000DF0581F0D8016D918D01D601ED91FC9122
:100240000190F081E02DC6010995892B11F02196CE
:10025000EECF7E01C701DF91CF911F910F91FF90EB
:10026000EF90DF90CF900895FC01538D448D252FA2
:1002700030E0842F90E0821B930B541710F0CF9640
:10028000089501970895FC01918D828D981761F072
:10029000828DDF01A80FB11D5D968C91928D9F5FBD
:1002A0009F73928F90E008958FEF9FEF0895FC0168
:1002B000918D828D981731F0828DE80FF11D858D1B
:1002C00090E008958FEF9FEF08950E94E21580EF70
:1002D00092E00E94380221E0892B09F420E0822F6D
:1002E0000895EF92FF920F931F93CF93DF93EC014A
:1002F00081E0888F9B8D8C8D981305C0E889F989E2
:10030000808185FD26C0F62E0B8D10E00F5F1F4FFC
:100310000F731127E02E8C8DE8120CC00FB607FC6E
:10032000FACFE889F989808185FFF5CFCE010E9457
:10033000B006F1CF8B8DFE01E80FF11DE35AFF4FA0
:10034000F0829FB7F8940B8FEA89FB8980818062E5
:100350000AC09FB7F894EE89FF896083E889F9891C
:1003600080818370806480839FBF81E090E0DF9113
:10037000CF911F910F91FF90EF900895CF93DF934E
:10038000EC01888D8823C9F0EA89FB89808185FD8D
:1003900005C0A889B9898C9186FD0FC00FB607FCEE
:1003A000F5CF808185FFF2CFA889B9898C9185FF2F
:1003B000EDCFCE010E94B006E7CFDF91CF91089537
:1003C0001F920F920FB60F9211242F933F934F93CA
:1003D0005F936F937F938F939F93AF93BF93EF93AD
:1003E000FF9380EF92E00E94B006FF91EF91BF91E2
:1003F000AF919F918F917F916F915F914F913F91BD
:100400002F910F900FBE0F901F9018951F920F9273
:100410000FB60F9211242F938F939F93EF93FF9317
:10042000E0910003F09101038081E0910603F091D7
:10043000070382FD12C09081809109038F5F8F7343
:1004400020910A03821751F0E0910903F0E0E05196
:10045000FD4F958F8093090301C08081FF91EF913B
:100460009F918F912F910F900FBE0F901F90189515
:10047000FC01918D228D892F90E0805C9F4F821B23
:1004800091098F739927089580E090E0892B29F0D6
:100490000E94670181110C9400000895FC016730EF
:1004A00029F06E3061F48085918502C08681978144
:1004B000009729F00480F581E02D938382830895CD
:1004C00081579E4FFC0171836083089583579E4F2F
:1004D000FC0171836083089585579E4FFC017183F1
:1004E0006083089587579E4FFC0171836083089550
:1004F00089579E4FFC017183608308958B579E4FEF
:10050000FC017183608308958D579E4FFC017183B8
:10051000608308958F579E4FFC0171836083089517
:1005200081589E4FFC0171836083089583589E4FCC
:10053000FC0171836083089585589E4FFC0171838F
:100540006083089587589E4FFC01718360830895EE
:1005500089589E4FFC0171836083089508958D58DA
:100560009E4FFC017183608308958F589E4FFC015C
:1005700071836083089581599E4FFC01718360836C
:10058000089583599E4FFC017183608308958DE225
:1005900090E00895CF93DF93EC018A819B81DC0189
:1005A000ED91FC910084F185E02D0995CD59DE4F48
:1005B000E881F981339620E28881998185559F4FA2
:1005C000E817F90730F48081811101C0208331964A
:1005D000F3CFDF91CF9108958A599E4FDC01ED91C1
:1005E000FC916283089520917E0230917F0228174A
:1005F000390771F490917C0280917D02981741F047
:10060000E0917C02F0E0E455FD4F808190E0089598
:100610008FEF9FEF089508951F93CF93DF93DC0131
:100620005C968D919C915D97009739F421E030E0C4
:1006300013963C932E9312973BC05196ED91FC91EB
:10064000529750962C915097322F30951FB75E9647
:100650004C915E97742F727041FD6095F8944081C3
:10066000772311F0422B01C043234083EC012197F3
:10067000F1F748E0508160FF02C0522B01C05323C4
:100680005083EC012197F1F76695415099F78081ED
:10069000772319F08323808302C0282B20831FBF78
:1006A0005C968D919C915D970197F1F781E090E0C8
:1006B000DF91CF911F91089520917E0230917F02AA
:1006C0002817390771F480917D0220917C0290E017
:1006D000805C9F4F821B910960E470E00E94DB12F6
:1006E000089580E090E0089520917E0230917F028D
:1006F00028173907B9F490917C0280917D029817F0
:1007000089F0E0917C02F0E0E455FD4F808120917A
:100710007C0230E02F5F3F4F2F73332720937C0202
:1007200090E008958FEF9FEF0895089580E090E0A6
:100730000895CF93DF93EC01E881F9810190F08176
:10074000E02D0995CE01DF91CF910C94E4080C9433
:10075000E4080C9459150C9459158F929F92AF92FE
:10076000BF92CF92DF92EF92FF920F931F93CF939E
:10077000DF93EC01FC01EB59FE4F80818E010A5999
:100780001E4F882309F401C1E881F9810190F081AD
:10079000E02D60E0CE0109952FB7F8948091EC022E
:1007A0009091ED02A091EE02B091EF022FBF7E0179
:1007B00028E9E21A2EEFF20AF701408151816281A5
:1007C0007381841B950BA60BB70B883E9340A10544
:1007D000B10508F481C0C459DE4F8881F801A081B9
:1007E000B18181115FC014968C9114978160149629
:1007F0008C93A081B18114968C9114978068149683
:100800008C93A081B18114968C9114978260149678
:100810008C93A081B18114968C9114978460149666
:100820008C93A081B18114968C9114978062149658
:100830008C93A081B18114968C9114978064149646
:100840008C93A081B18114968C9114978860149632
:100850008C93A081B18114968C9114978061149629
:100860008C93A081B18115968C9115978160159616
:100870008C93A081B18115968C9115978260159605
:100880008C93A081B18115968C91159788601596EF
:100890008C93A081B18115968C91159780611596E6
:1008A0008C9306C014961C92A081B18115961C925F
:1008B000988181E0892788832FB7F8948091EC0292
:1008C0009091ED02A091EE02B091EF022FBFF701DF
:1008D00080839183A283B38380E090E022EDD801EE
:1008E000ED91FC911197E80FF91F26830196863050
:1008F0009105A9F7ED91FC91119788E290E0958719
:10090000848784E590E09787868786E4808BED91E5
:10091000FC91119788E7818BED91FC91119780E50F
:10092000828BED91FC91119787E594E0948B838BFA
:1009300088EB9BE0968B858B8DE692E0908F878B82
:100940008EE995E7928F818F80E4838FED91FC9102
:10095000119782EC91E0958F848F8EE690E0978FCF
:10096000868F89E790E091A380A384E690E093A32B
:1009700082A386E984A3ED91FC91119783E085A37E
:10098000ED91FC9184E681A79BC17E01B3E9EB1A4E
:10099000BEEFFB0AD701ED91FC91208131814281AC
:1009A000538161E0CE010E94A708D701ED91FC912F
:1009B000208131814281538162E0CE010E94A708EB
:1009C000D701ED91FC91208131814281538163E017
:1009D000CE010E94A708D701ED91FC9120813181C1
:1009E0004281538164E0CE010E94A708D701ED91B6
:1009F000FC91208131814281538165E0CE010E94CA
:100A0000A708D701ED91FC9120813181428153816A
:100A100066E0CE010E94A708F801E080F180FE01A7
:100A2000E159FE4F0190F081E02D2DEC3CEC4CECB7
:100A30005DE360817181828193810E9462134B0129
:100A40005C0120E030E0A9010E94981420E030E031
:100A500040E05FE387FD05C0C501B4010E94F612C6
:100A600004C0C501B4010E94F5120E94D413D7013D
:100A70001D967C936E931C97FE01EF58FE4F0190DC
:100A8000F081E02D2DEC3CEC4CEC5DE3608171815C
:100A9000828193810E9462134B015C0120E030E06F
:100AA000A9010E94981420E030E040E05FE387FD58
:100AB00005C0C501B4010E94F61204C0C501B4010D
:100AC0000E94F5120E94D413F70177876687FE0112
:100AD000ED58FE4F0190F081E02D808190E08B3E3B
:100AE000910514F4449602C08BEE90E0D701509625
:100AF0008C93FE01EB58FE4F0190F081E02D808138
:100B000090E0D801ED91FC918B3E910514F4449650
:100B100002C08BEE90E0818BFE01E958FE4F019000
:100B2000F081E02D8081D801ED91FC911197828BAD
:100B3000FE01E758FE4F0190F081E02D8081918108
:100B4000ED91FC91948B838BDE01A558BE4F0D90E7
:100B5000BC91A02D8D919C912AE0C22ED12CB60182
:100B60000E94C712768B658BDE01A358BE4F0D9095
:100B7000BC91A02D8D919C918C509E4F908F878B16
:100B8000DE01AF57BE4F0D90BC91A02D8C918858BF
:100B9000838FF801E080F180FE01E158FE4F019063
:100BA000F081E02D2AE037ED43E25CE36081718162
:100BB000828193810E9462130E94D413605D7A48FF
:100BC000D7015A967C936E935997FE01ED57FE4FCD
:100BD0000190F081E02D2DEC3CEC4CEC5DE360816C
:100BE0007181828193810E9462130E94D413F70164
:100BF000758F648FFE01EB57FE4F0190F081E02D61
:100C000060817181828193810E94DB1380E090E09A
:100C10000E940A142DEC3CEC4CEC5DE30E94621344
:100C20000E94D413D7015F967C936E935E97FE016A
:100C3000E957FE4F0190F081E02D80819181B6014E
:100C40000E94C712F70171A360A3FE01E757FE4F90
:100C50000190F081E02D80819181D70193969C9342
:100C60008E939297FE01E557FE4F0190F081E02DA3
:100C7000808195968C93F80100811181FE01E357E4
:100C8000FE4F0190F081E02D80819181B6010E949C
:100C9000C712D80156967C936E935597C157DE4F75
:100CA000E881F9812DEC3CEC4CEC5DE360817181D5
:100CB000828193810E9462130E94DB13F80161A775
:100CC000DF91CF911F910F91FF90EF90DF90CF9028
:100CD000BF90AF909F908F900895CF93DF93FC01CA
:100CE000EA59FE4FA081B1818DE2ED0119928A95FA
:100CF000E9F7A081B1818CE78C93A081B1818DE867
:100D000011968C93A081B18180ED13968C93019004
:100D1000F081E02D8DE783A7DF91CF910895CF93E8
:100D2000DF93EC01CD59DE4FE881F9818BE78083B9
:100D3000E881F9811182E881F981128288819981A3
:100D400048EA50E060E270E003960E94E715E8810F
:100D5000F981E555FF4F8DE78083DF91CF910895AD
:100D6000FC01848DDF01A80FB11DA35ABF4F2C9148
:100D7000848D90E001968F739927848FA689B78917
:100D80002C93A089B1898C91837080648C93938D0E
:100D9000848D981306C00288F389E02D80818F7DB1
:100DA0008083089508954F925F926F927F928F9201
:100DB0009F92AF92BF92CF92DF92EF92FF920F93EA
:100DC0001F93CF93DF93EC016B017A010E94BA0964
:100DD0002B013C0195E0892E912CA12CB12C0E9475
:100DE000BA09DC01CB0184199509A609B709883E27
:100DF0009340A105B10598F321E0821A9108A1085A
:100E0000B10888EE480E83E0581E611C711C8114E5
:100E10009104A104B10419F78601912CF1E0EF1AB5
:100E2000F10883E2A82E8AE0B82E88819981980182
:100E30002C193D092E153F05C4F4D8016D918D0183
:100E4000960EDC01ED91FC910190F081E02D099569
:100E5000C5010197F1F788819981DC01ED91FC9141
:100E60000284F385E02D0995E0CFDC01ED91FC9142
:100E70000190F081E02D692D099583E29AE00197B8
:100E8000F1F788819981DC01ED91FC910284F38571
:100E9000E02DDF91CF911F910F91FF90EF90DF90A8
:100EA000CF90BF90AF909F908F907F906F905F900A
:100EB0004F90099408951F920F920FB60F9211242C
:100EC0002F933F934F935F936F937F938F939F9352
:100ED000AF93BF93EF93FF93E0917E02F0917F0277
:100EE000309709F451C0968DA685B785858591FF09
:100EF00004C09C91892329F447C09C91892309F05F
:100F000043C0A389B4899C918589809589238C935A
:100F1000868997890197F1F7608D718DA685B785D0
:100F2000558538E020E0CB010197F1F7822F90E062
:100F300095958795282F4C91452309F020683150CD
:100F400091F7868D81FD209580917D0290E001963C
:100F50008F73992730917C02381749F0A0917D0258
:100F6000B0E0A455BD4F2C9380937D0203C0868DC5
:100F70008160868F828D938D0197F1F7A389B48963
:100F80009C918589892B8C93FF91EF91BF91AF91B3
:100F90009F918F917F916F915F914F913F912F9191
:100FA0000F900FBE0F901F9018951F922CE02F935B
:100FB0005F934F931F922EE32F9327E032E03F93EE
:100FC0002F931F9245E14F938D599E4F469F90015D
:100FD000479F300D11242D5F3F4FFC01808191818F
:100FE000820F931F9F938F930E94EE158DB79EB72C
:100FF0000C960FB6F8949EBF0FBE8DBF0895EF926A
:10100000FF920F931F93CF93DF93EC017A01122F7E
:10101000188219821A821B827D836C838BE090E098
:101020000E94C114FC0110821182128213828EE090
:1010300092E09583848310871782F286E186FF838E
:10104000EE838BE090E00E94C114FC0110821182BB
:101050001282138287E192E095838483008781E086
:101060008783F286E186F987E887DF91CF911F9128
:101070000F91FF90EF900895EF92FF920F931F93BF
:10108000CF93DF93EC017A01122F18827A83698360
:1010900088E090E00E94C114FC0110828EE092E092
:1010A0009283818315831482F782E682FC83EB832B
:1010B00088E090E00E94C114FC01108287E192E078
:1010C00092838183058381E08483F782E682FE83B5
:1010D000ED83DF91CF911F910F91FF90EF900895D5
:1010E000EF92FF920F931F93CF93DF93EC017A015E
:1010F000122F198218827B836A8389E090E00E9414
:10110000C114FC01118210828EE092E093838283ED
:1011100016831582F086E782FD83EC8389E090E0F8
:101120000E94C114FC011182108287E192E0938336
:101130008283068381E08583F086E782FF83EE83E6
:10114000DF91CF911F910F91FF90EF900895CF9273
:10115000DF92EF92FF920F931F93CF93DF9369017A
:101160007A018A599E4FFC0100811181C62FD0E07F
:101170002AE037ED43EA5CE3C701B6010E9462133F
:101180006B017C0120E030E0A9010E94981420E06E
:1011900030E040E05FE387FD05C0C701B6010E9473
:1011A000F61204C0C701B6010E94F5120E94D413C2
:1011B000C00FD11F6E83DF91CF911F910F91FF90D0
:1011C000EF90DF90CF9008958F929F92AF92BF9251
:1011D000CF92DF92EF92FF920F931F93CF93DF9303
:1011E000CDB7DEB72A970FB6F894DEBF0FBECDBFDE
:1011F0007C01DC0112969C91129713964C911397E7
:1012000020E232E080E280932002809321028093EA
:101210002202809323024F939F933F932F938BE45B
:1012200092E09F938F931F9285E18F931496ED9197
:10123000FC911597ED59FE4F8081918103969F9304
:101240008F930E94EE1546E252E061E070E0F701F4
:10125000848195810E94D507E5E3F2E00FB6F8940A
:10126000DEBF0FBECDBF80818058819392E0EA330C
:10127000F907C9F785E392E09F938F938BE392E0A0
:101280009F938F931F928EE3A82EAF9299E4C92E5D
:1012900092E0D92EDF92CF921F9225E1B22EBF921B
:1012A000D7011496ED91FC911597ED59FE4F808171
:1012B00091818D969F938F930E94EE15FE0131963A
:1012C0004F018F0122E044E06AE979E981E491E489
:1012D0000E943E109F928F9280E592E09F938F93A1
:1012E0001F92AF92DF92CF921F92BF92D7011496B6
:1012F000ED91FC911597ED59FE4F808191818E5BA8
:101300009F4F9F938F930E94EE1540E652E065E059
:1013100070E0F701848195810E94D50749E652E08B
:1013200066E070E0D70114968D919C9115970E940C
:10133000D50742E752E067E070E0F70184819581CC
:101340000E94D5070FB6F894DEBF0FBECDBF2A9618
:101350000FB6F894DEBF0FBECDBFDF91CF911F91C6
:101360000F91FF90EF90DF90CF90BF90AF909F9044
:101370008F9008953FB7F8948091AD039091AE039C
:10138000A091AF03B091B00326B5A89B05C02F3F35
:1013900019F00196A11DB11D3FBFBA2FA92F982F9B
:1013A0008827820F911DA11DB11DBC01CD0142E016
:1013B000660F771F881F991F4A95D1F708951F92CE
:1013C0000F920FB60F9211242F933F938F939F93F9
:1013D000AF93BF938091EC029091ED02A091EE0249
:1013E000B091EF023091AC0323E0230F2D3720F4AE
:1013F0000196A11DB11D05C026E8230F0296A11D6F
:10140000B11D2093AC038093EC029093ED02A09366
:10141000EE02B093EF028091AD039091AE03A091E4
:10142000AF03B091B0030196A11DB11D8093AD0330
:101430009093AE03A093AF03B093B003BF91AF916D
:101440009F918F913F912F910F900FBE0F901F9002
:101450001895789484B5826084BD84B5816084BD1C
:1014600085B5826085BD85B5816085BD80916E0042
:10147000816080936E001092810080918100826073
:1014800080938100809181008160809381008091B0
:1014900080008160809380008091B100846080939F
:1014A000B1008091B00081608093B00080917A009B
:1014B000846080937A0080917A00826080937A00C1
:1014C00080917A00816080937A0080917A008068B0
:1014D00080937A001092C100E0910003F091010323
:1014E00082E08083E091FC02F091FD021082E091A5
:1014F000FE02F091FF0280E1808310920803E091E8
:101500000403F091050386E08083E0910203F091EB
:101510000303808180618083E0910203F0910303E3
:10152000808188608083E0910203F09103038081D1
:1015300080688083E0910203F091030380818F7DB6
:1015400080831092A8031092A7031092A603109212
:10155000A5031092A4031092A3038DEC90E0909346
:10156000AA038093A90390919903963108F058C07B
:1015700025E530E03093A4032093A3032BEC30E067
:101580003093A6032093A50320E930E03093A8030D
:101590002093A70340916800983058F031E09E30C6
:1015A00008F430E021E0822F01C0880F3A95EAF775
:1015B00001C084E0842B80936800983038F09E301E
:1015C00040F0963148F020E030E008C02DE630E0F1
:1015D00005C02BE630E002C02CE630E03093A103DA
:1015E0002093A003983030F481E001C0880F9A95D1
:1015F000EAF70EC0292F30E09E3018F42850310948
:1016000002C02E50310981E001C0880F2A95EAF707
:101610008093A2038091A9039091AA030197F1F707
:101620008091A7039091A803892B49F1E0917E0254
:10163000F0917F0283E0ED38F80709F1309739F037
:10164000A389B4899C918589809589238C93809105
:10165000AB038E7F8093AB0310927D0210927C02CD
:101660008DE893E090937F0280937E02E091A00347
:10167000F091A10390818091A203892B808381E95D
:1016800091E00E94C114EC01FC01ED59FE4F8A5417
:101690009F4F918380836E01ABE9CA1AAEEFDA0ADD
:1016A000F60110828AE091E0998388833196CE0119
:1016B0000496918380833296108211821282138263
:1016C00034961082CE010E946D06D093A902C09379
:1016D000A8028AE090E00E94C1147C0100E021E1B0
:1016E000AE0164E871E00E94FF07F092A702E09269
:1016F000A6028AE090E00E94C1145C010AE022E1A7
:10170000AE016AE871E00E94FF07B092A502A092C4
:10171000A4028AE090E00E94C1145C010BE023E186
:10172000AE016FE871E00E94FF07B092A302A092A1
:10173000A20287E090E00E94C1145C0108E026E06C
:10174000AE0164E971E00E943C08B092A102A0924F
:10175000A00287E090E00E94C1145C0109E027E04C
:10176000AE016AE971E00E943C08B0929F02A0922B
:101770009E0287E090E00E94C1145C0100E020E03E
:10178000AE0160EA71E00E943C08B0929D02A09216
:101790009C0288E090E00E94C1145C0125E1AE014A
:1017A00066EA71E00E947008B0929B02A0929A02D1
:1017B00088E090E00E94C1145C0109E124E1AE01DF
:1017C0006BEA71E00E947008B0929902A0929802B0
:1017D00088E090E00E94C1145C010AE12FE0AE01B4
:1017E0006FEA71E00E947008B0929702A092960290
:1017F0008AE090E00E94C1145C010EE020E0AE019E
:1018000063EB71E00E94FF07B0929502A0929402F0
:1018100088E090E00E94C1145C0100E020E0AE018D
:101820006AEB71E00E947008B0929302A09292025B
:101830008AE090E00E94C1145C0107E120E0AE0163
:1018400062EC71E00E94FF07B0929102A0929002B8
:101850008AE090E00E94C1145C0108E120E1AE0141
:1018600066EC71E00E94FF07B0928F02A0928E0298
:1018700088E090E00E94C1145C0106E120E0AE0126
:101880006EEC71E00E947008B0928D02A0928C0202
:1018900088E090E00E94C1145C010CE021E0AE0100
:1018A00062ED71E00E947008B0928B02A0928A02F1
:1018B00087E090E00E94C1145C0100E020E0AE01EE
:1018C00068ED71E00E943C08B0928902A092880203
:1018D00088E090E00E94C1145C0109E124E1AE01BE
:1018E00062EE71E00E947008B0928702A0928602B8
:1018F0008AE090E00E94C1145C0100E020E0AE01AB
:1019000067EE71E00E94FF07B0928502A092840208
:10191000D6011C9284E090E00E94C1142DE833E0CF
:10192000FC01318320839093AB028093AA02D3837E
:10193000C2838AE090E00E94C1148C0136E5C32E78
:1019400031E0D32EDC011196DC92CE9217961C92D8
:101950001E92169780EF91E013969C938E931297A8
:101960001596DC93CE931497109383020093820212
:101970008AE090E00E94C114FC01D182C0821186ED
:1019800010868BEF91E093838283D583C483F09399
:101990008102E0938002D8011996FC93EE93189788
:1019A000178306831B830A83E881F9810088F18904
:1019B000E02DB701CE0109958091A8029091A9026E
:1019C0006091A4027091A502DC01ED91FC91028866
:1019D000F389E02D09958091A8029091A902609168
:1019E000A2027091A302DC01ED91FC910488F589BB
:1019F000E02D09958091A8029091A9026091A00222
:101A00007091A102DC01ED91FC910688F789E02D2F
:101A100009958091A8029091A90260919E0270910F
:101A20009F02DC01ED91FC91008CF18DE02D099578
:101A30008091A8029091A90260919C0270919D02F0
:101A4000DC01ED91FC91028CF38DE02D09958091E4
:101A5000A8029091A90260919A0270919B02DC0108
:101A6000ED91FC91048CF58DE02D09958091A802F3
:101A70009091A9026091980270919902DC01ED9118
:101A8000FC91068CF78DE02D09958091A80290912C
:101A9000A9026091960270919702DC01ED91FC9190
:101AA00000A0F1A1E02D09958091A8029091A902D2
:101AB0006091940270919502DC01ED91FC9102A07D
:101AC000F3A1E02D09958091A8029091A90260915F
:101AD000920270919302DC01ED91FC9104A0F5A1BA
:101AE000E02D09958091A8029091A9026091900241
:101AF00070919102DC01ED91FC9106A0F7A1E02D1F
:101B000009958091A8029091A90260918E0270912E
:101B10008F02DC01ED91FC9100A4F1A5E02D099567
:101B20008091A8029091A90260918C0270918D021F
:101B3000DC01ED91FC9102A4F3A5E02D09958091C3
:101B4000A8029091A90260918A0270918B02DC0137
:101B5000ED91FC9104A4F5A5E02D09958091A802D2
:101B60009091A9026091880270918902DC01ED9147
:101B7000FC9106A4F7A5E02D09958091A80290910B
:101B8000A9026091860270918702DC01ED91FC91BF
:101B900000A8F1A9E02D09958091A8029091A902D1
:101BA0006091840270918502DC01ED91FC9102A8A4
:101BB000F3A9E02D0995E091A602F091A70286E62F
:101BC00096E6A6E8B0E480839183A283B383E09194
:101BD000A402F091A50286E696E6A6E0B1E4808331
:101BE0009183A283B383E091A202F091A302808348
:101BF0009183A283B383E091A002F091A10288E7D0
:101C00008083E0919E02F0919F0289E78083E091BA
:101C10009C02F0919D0280E58083E0919A02F09110
:101C20009B0280EB94E091838083E0919802F09195
:101C3000990280ED94E891838083E0919602F0917F
:101C4000970288E790E091838083E0919402F0917D
:101C5000950286E696E6A6EAB0E480839183A283A5
:101C6000B383E0919202F09193028AE090E0918335
:101C70008083E0919002F091910283E393E3ABEBD8
:101C8000B1E480839183A283B383E0918E02F091CB
:101C90008F0283E393E3A3E2B1E480839183A28381
:101CA000B383E0918C02F0918D0288E998E09183F2
:101CB0008083E0918A02F0918B028FED90E0918316
:101CC0008083E0918802F091890282E08083E09134
:101CD0008602F091870288EE90E891838083E091FC
:101CE0008402F09185028AE999E9A1E4B1E4808354
:101CF0009183A283B383C091AA02D091AB02888161
:101D00009981DC01ED91FC910084F185E02D09952C
:101D100002970CF465C088819981DC01ED91FC91FA
:101D20000284F385E02D099599278F37910541F1BC
:101D30008038910509F054C088819981DC01ED91CA
:101D4000FC910284F385E02D09958D3809F048C097
:101D50008A819B81DC01ED91FC910284F385E02D69
:101D600009958A819B81DC01ED91FC910684F785C0
:101D7000E02D09956A817B816C5F7F4FAC012DC09E
:101D800088819981DC01ED91FC910284F385E02D3D
:101D900009958C018A819B81DC01ED91FC91008485
:101DA000F185E02D0995C801992724E0959587953F
:101DB0002A95E1F78D30A1F48A819B81602F6F70A5
:101DC000DC01ED91FC910484F585E02D09956A8193
:101DD0007B816A547F4F4DEA50E0CE010E94D306CA
:101DE0000E94440288CF86E791E090938E0380930F
:101DF0008D0380917E0290917F028D58934071F403
:101E0000E091A003F091A10390818091A2038095BD
:101E10008923808310927F0210927E02089590E0C1
:101E2000FC01EE59FE4F2491FC01E855FE4F349120
:101E3000FC01EC56FE4FE491EE2309F43CC0222352
:101E400039F1233091F038F42130A9F0223001F536
:101E500084B58F7D12C0273091F02830A1F0243056
:101E6000B9F4809180008F7D03C0809180008F77CE
:101E7000809380000DC084B58F7784BD09C08091A8
:101E8000B0008F7703C08091B0008F7D8093B00049
:101E9000F0E0EE0FFF1FE657FE4FA591B4919FB7FC
:101EA000F894611104C08C913095382302C0EC91F4
:101EB0003E2B3C939FBF0895CF93DF931092F30284
:101EC0001092F20288EE93E0A0E0B0E08093F4027A
:101ED0009093F502A093F602B093F70224E631E066
:101EE0003093F1022093F00225EC30E03093FD02B4
:101EF0002093FC0224EC30E03093FF022093FE029A
:101F000020EC30E0309301032093000321EC30E01B
:101F1000309303032093020322EC30E03093050357
:101F20002093040326EC30E030930703209306034C
:101F30001092090310920A0310920B0310920C03E3
:101F40001092900310928F038093910390939203C9
:101F5000A0939303B093940386E791E090938E034C
:101F600080938D031092A4031092A3031092A603F2
:101F70001092A5031092A8031092A7031092AA032F
:101F80001092A9036091AB036E7F6D7F6093AB03EA
:101F90006695617081E068278BE00E940F0FE3EB8C
:101FA000F1E02491EFE9F1E08491882399F090E049
:101FB000880F991FFC01E058FE4FA591B491FC01D8
:101FC000E657FE4F859194918FB7F894EC91E22BF0
:101FD000EC938FBFE3EBF1E0E491E0939D03EFE935
:101FE000F1E0E491F0E0EE0FFF1FE657FE4F859120
:101FF000949190939F0380939E03E2EBF1E02491F0
:10200000EEE9F1E084918823C1F090E0880F991FF8
:10201000FC01E058FE4FC591D491FC01E657FE4FFC
:10202000A591B4919FB7F8948881E22FE0958E2313
:1020300088838C91E823EC939FBF8091AB0381FD53
:1020400004C061E08AE00E940F0F8AE08093990348
:10205000E2EBF1E0E491E0939A03EEE9F1E0E49140
:10206000F0E0EE0FFF1FEA58FE4F85919491909398
:102070009C0380939B03DF91CF910895EF920F9380
:102080001F93CF93DF93E80147FD02C034E001C006
:1020900034E1042E000C550B57FF03C051954195B8
:1020A0005109E32E022F242FAE010E945E10CE01B3
:1020B000DF91CF911F910F91EF900895A9E0B0E0CB
:1020C000E4E6F0E10C9496126A01122FB02E2BE395
:1020D000201720F0FF24F394F00E02C02CE3F22E20
:1020E0000F2D27E0AE014F5F5F4F0E94B811BC017A
:1020F0004981842F8970813031F0E1FC06C0E0FE17
:1021000006C090E205C09DE203C09BE201C090E0E2
:102110005E2D507143FF3CC0911102C083E001C0AD
:1021200084E0811718F4212F281B01C020E05111F1
:102130000BC0F601822F30E2882319F031938150D1
:10214000FBCFC20ED11C20E0992329F0D6019C932D
:10215000F60131966F01C6010396E2FE0AC03EE425
:10216000D6013C9341E411964C93119712963C93FF
:1021700006C03EE6F601308341E641833283FC012E
:10218000322F40E2332309F442C041933150FACF59
:1021900042FF44C0911102C083E001C084E0811776
:1021A00018F4212F281B01C020E051110BC0F601AB
:1021B000822F30E2882319F031938150FBCFC20E79
:1021C000D11C20E0992329F0D6019C93F601319689
:1021D0006F01C6010396E2FE0BC039E4D6013C93C1
:1021E0003EE411963C93119736E412963C9307C057
:1021F00039E6F60130833EE6318336E63283FC0170
:10220000322F40E2332319F041933150FBCFFC01D0
:10221000E20FF11D10828EEF9FEFA6C021E030E0AB
:10222000911102C020E030E0161617061CF4FB01E5
:10223000319602C0E1E0F0E02E0F3F1FBB2021F0FD
:10224000EB2DF0E0319602C0E0E0F0E02E0F3F1FF2
:10225000E12FF0E02E173F071CF4121B212F01C0C5
:1022600020E08E2D887159F4F601822F30E2882308
:1022700019F031938150FBCFC20ED11C20E099237D
:1022800029F0D6019C93F60131966F0151110BC0D4
:10229000F601822F90E3882319F091938150FBCFB0
:1022A000C20ED11C20E00F2D060F9A81342F307101
:1022B00044FF03C0913309F40150101624F409308F
:1022C00018F008E001C001E0AB0177FF02C040E078
:1022D00050E0FB01E41BF50BA1E0B0E0AC0FBD1F2B
:1022E000EA0FFB1F8EE2A82E4B01801A91080B2DDE
:1022F00010E01195019511094F3FBFEF5B0721F4E5
:10230000D601AC9211966D01641775072CF08416F6
:10231000950614F4818101C080E341505109319642
:10232000D60111967D014017510724F0D6018C93F8
:102330006701E2CF6417750739F4963320F49533BB
:1023400019F4311101C081E3F6018083F701822F76
:1023500090E2882319F091938150FBCFF701E20FAF
:10236000F11D108280E090E02996ECE00C94B2120E
:10237000283008F027E03327DA01990F311D87FD57
:10238000916000966105710539F432602E5F3D93CE
:1023900030E32A95E1F708959F3F30F080387105CA
:1023A000610509F03C5F3C5F3D93913008F0806827
:1023B000911DDF93CF931F930F93FF92EF92192FED
:1023C000987F9695E92F96959695E90FFF27EE53FE
:1023D000FF4F99273327EE24FF24A701E70105903B
:1023E0000894079428F4360FE71EF81E491F511D64
:1023F000660F771F881F991F0694A1F70590079411
:1024000028F4E70EF81E491F561FC11D770F881FBD
:10241000991F661F0694A1F70590079428F4F80EFB
:10242000491F561FC71FD11D880F991F661F771F91
:102430000694A1F70590079420F4490F561FC71F73
:10244000D81F990F661F771F881F0694A9F78491DC
:102450001095177041F0D695C79557954795F79405
:10246000E7941A95C1F7E8E6F0E0689415901591A5
:1024700035916591959105907FE27395E118F10A88
:10248000430B560BC90BD009C0F7E10CF11E431FDB
:10249000561FC91FD01D7EF4703311F48A95E6CF04
:1024A000E894015030F0080F0AF40027021708F4EE
:1024B000202F2395022F7A3328F079E37D932A95F4
:1024C000E9F710C07D932A9589F60694979567954C
:1024D000379517951794E118F10A430B560BC90B62
:1024E000D00998F023957E9173957A3308F070E3C4
:1024F0007C932013B8F77E9170617D9330F08395C3
:1025000071E37D9370E32A95E1F71124EF90FF903A
:102510000F911F91CF91DF91992787FD9095089595
:102520002F923F924F925F926F927F928F929F92E3
:10253000AF92BF92CF92DF92EF92FF920F931F93D1
:10254000CF93DF93CDB7DEB7CA1BDB0B0FB6F89482
:10255000DEBF0FBECDBF09942A88398848885F84C2
:102560006E847D848C849B84AA84B984C884DF8033
:10257000EE80FD800C811B81AA81B981CE0FD11D17
:102580000FB6F894DEBF0FBECDBFED010895AA1BB4
:10259000BB1B51E107C0AA1FBB1FA617B70710F04E
:1025A000A61BB70B881F991F5A95A9F78095909580
:1025B000BC01CD01089597FB072E16F4009407D0B7
:1025C00077FD09D00E94C71207FC05D03EF4909514
:1025D00081959F4F0895709561957F4F0895EE0FF7
:1025E000FF1F0590F491E02D09945058BB27AA27AE
:1025F0000E940D130C945E140E94501438F00E9437
:10260000571420F039F49F3F19F426F40C944D141C
:102610000EF4E095E7FB0C944714E92F0E946F1429
:1026200058F3BA17620773078407950720F079F407
:10263000A6F50C9491140EF4E0950B2EBA2FA02D54
:102640000B01B90190010C01CA01A0011124FF275F
:10265000591B99F0593F50F4503E68F11A16F0405A
:10266000A22F232F342F4427585FF3CF4695379559
:102670002795A795F0405395C9F77EF41F16BA0B1E
:10268000620B730B840BBAF09150A1F0FF0FBB1FCC
:10269000661F771F881FC2F70EC0BA0F621F731F15
:1026A000841F48F4879577956795B795F7959E3F72
:1026B00008F0B0CF9395880F08F09927EE0F979503
:1026C000879508950E9476130C945E140E94571407
:1026D00058F00E94501440F029F45F3F29F00C9408
:1026E000471451110C9492140C944D140E946F14C1
:1026F00068F39923B1F3552391F3951B550BBB2731
:10270000AA2762177307840738F09F5F5F4F220F75
:10271000331F441FAA1FA9F335D00E2E3AF0E0E86C
:1027200032D091505040E695001CCAF72BD0FE2FB6
:1027300029D0660F771F881FBB1F2617370748074A
:10274000AB07B0E809F0BB0B802DBF01FF27935802
:102750005F4F3AF09E3F510578F00C9447140C946B
:1027600092145F3FE4F3983ED4F38695779567958E
:10277000B795F7959F5FC9F7880F911D9695879537
:1027800097F90895E1E0660F771F881FBB1F621756
:1027900073078407BA0720F0621B730B840BBA0B14
:1027A000EE1F88F7E09508950E94DB136894B1113D
:1027B0000C94921408950E94771488F09F5798F013
:1027C000B92F9927B751B0F0E1F0660F771F881F36
:1027D000991F1AF0BA95C9F714C0B13091F00E9450
:1027E0009114B1E008950C949114672F782F8827E5
:1027F000B85F39F0B93FCCF3869577956795B39577
:10280000D9F73EF490958095709561957F4F8F4FE5
:102810009F4F0895E89409C097FB3EF490958095EA
:10282000709561957F4F8F4F9F4F9923A9F0F92F96
:1028300096E9BB279395F695879577956795B79514
:10284000F111F8CFFAF4BB0F11F460FF1BC06F5FFA
:102850007F4F8F4F9F4F16C0882311F096E911C00C
:10286000772321F09EE8872F762F05C0662371F02D
:1028700096E8862F70E060E02AF09A95660F771F41
:10288000881FDAF7880F9695879597F9089597F935
:102890009F6780E870E060E008959FEF80EC089506
:1028A00000240A941616170618060906089500242F
:1028B0000A9412161306140605060895092E0394A9
:1028C000000C11F4882352F0BB0F40F4BF2B11F41D
:1028D00060FF04C06F5F7F4F8F4F9F4F089557FD7C
:1028E0009058440F551F59F05F3F71F04795880F7E
:1028F00097FB991F61F09F3F79F087950895121615
:1029000013061406551FF2CF4695F1DF08C01616C0
:1029100017061806991FF1CF869571056105089471
:102920000895E894BB2766277727CB0197F9089588
:102930000E949D1408F48FEF0895990F0008550F19
:10294000AA0BE0E8FEEF16161706E807F907C0F035
:1029500012161306E407F50798F0621B730B840B3D
:10296000950B39F40A2661F0232B242B252B21F417
:1029700008950A2609F4A140A6958FEF811D811DB7
:1029800008950F931F93CF93DF938230910510F436
:1029900082E090E0E091B303F091B40320E030E0F6
:1029A000A0E0B0E0309719F140815181028113819C
:1029B00048175907C8F08417950769F4109731F044
:1029C00012960C93129713961C9327C00093B3038F
:1029D0001093B40322C02115310519F04217530793
:1029E00018F49A01BD01EF01DF01F801DBCF2115D9
:1029F0003105F9F0281B390B2430310580F48A8128
:102A00009B816115710521F0FB019383828304C0D2
:102A10009093B4038093B303FE01329644C0FE0149
:102A2000E20FF31F81939193225031093983288358
:102A30003AC02091B1033091B203232B41F420918D
:102A40000201309103013093B2032093B10320912E
:102A50000001309101012115310541F42DB73EB738
:102A60004091040150910501241B350BE091B10305
:102A7000F091B203E217F307A0F42E1B3F0B2817C7
:102A8000390778F0AC014E5F5F4F2417350748F0E7
:102A90004E0F5F1F5093B2034093B1038193919304
:102AA00002C0E0E0F0E0CF01DF91CF911F910F91E4
:102AB0000895CF93DF93009709F481C0FC0132970A
:102AC00013821282A091B303B091B403109781F4E2
:102AD00020813181820F931F2091B1033091B20385
:102AE0002817390751F5F093B203E093B10367C09B
:102AF000ED0120E030E0CE17DF0740F44A815B8132
:102B00009E0141155105F1F0EA01F5CFD383C2834F
:102B100040815181840F951FC817D90759F48881C6
:102B20009981840F951F0296918380838A819B816E
:102B3000938382832115310529F4F093B403E09344
:102B4000B3033DC0E901FB83EA8349915991C40F66
:102B5000D51FEC17FD0761F480819181840F951FCB
:102B60000296E90199838883828193819B838A837A
:102B7000E0E0F0E012968D919C911397009719F088
:102B8000FD01DC01F7CF8D919C9111979D012E5F86
:102B90003F4F820F931F2091B1033091B20328174A
:102BA000390769F4309729F41092B4031092B303F3
:102BB00002C013821282B093B203A093B103DF91DB
:102BC000CF91089581E090E0F8940C94AF18DC0167
:102BD00001C06D9341505040E0F70895AEE0B0E081
:102BE000E4EFF5E10C949E120D891E898F89988D72
:102BF00026E02C831A83098397FF02C080E090E8C7
:102C000001979E838D83AE01455E5F4F698D7A8DFE
:102C1000CE0101960E941E164D815E8157FD0AC0AD
:102C20002F813885421753070CF49A01F801E20FFF
:102C3000F31F10822E96E4E00C94BA12ABE0B0E0E1
:102C4000E4E2F6E10C9490126C017B018A01FC0134
:102C500017821682838181FFCCC1CE0101963C018F
:102C6000F6019381F70193FD859193FF81917F0197
:102C7000882309F4BAC1853239F493FD859193FF15
:102C800081917F01853229F4B60190E00E941518E8
:102C9000E7CF912C212C312CFFE1F315D8F08B32AA
:102CA00079F038F4803279F08332A1F4232D206159
:102CB0001DC08D3261F0803369F4232D216016C070
:102CC000832D8260382EE32DE4603E2E2AC0F32D42
:102CD000F8601DC037FC2DC020ED280F2A3040F0D1
:102CE0008E32B9F436FC81C1232D2064322E19C0F6
:102CF00036FE06C08AE0989E200D1124922E11C047
:102D0000EAE02E9E200D1124222EF32DF0623F2E9C
:102D100008C08C3621F4832D8068382E02C0883696
:102D200041F4F70193FD859193FF81917F0181111A
:102D3000B3CF982F9F7D9554933028F40C5F1F4F8D
:102D40009FE399830DC0833631F0833771F083356B
:102D500009F059C021C0F801808189830E5F1F4F9F
:102D600088248394912C530113C02801F2E04F0E64
:102D7000511CF801A080B18036FE03C0692D70E0BF
:102D800002C06FEF7FEFC5010E940A184C0182015B
:102D9000F32DFF773F2E16C0280122E0420E511C72
:102DA000F801A080B18036FE03C0692D70E002C03A
:102DB0006FEF7FEFC5010E94FF174C01F32DF06804
:102DC0003F2E820133FC1BC0822D90E088169906AD
:102DD000B0F4B60180E290E00E9415182A94F4CF76
:102DE000F50137FC859137FE81915F01B60190E0D6
:102DF0000E94151821102A9421E0821A910881144A
:102E0000910471F7E8C0843611F0893641F5F80174
:102E100037FE07C060817181828193810C5F1F4FF3
:102E200008C060817181072E000C880B990B0E5F22
:102E30001F4FF32DFF763F2E97FF09C09095809589
:102E4000709561957F4F8F4F9F4FF0683F2E2AE01E
:102E500030E0A3010E945118882E861845C085379E
:102E600031F4232D2F7EB22E2AE030E025C0932DA1
:102E7000997FB92E8F36C1F018F4883579F0B5C036
:102E8000803719F0883721F0B0C0E92FE061BE2EFD
:102E9000B4FE0DC0FB2DF460BF2E09C034FE0AC085
:102EA000292F2660B22E06C028E030E005C020E1C0
:102EB00030E002C020E132E0F801B7FE07C06081D7
:102EC0007181828193810C5F1F4F06C06081718187
:102ED00080E090E00E5F1F4FA3010E945118882EE2
:102EE0008618FB2DFF773F2E36FE0DC0232D2E7F3B
:102EF000A22E891458F434FE0BC032FC09C0832D75
:102F00008E7EA82E05C0B82CA32C03C0B82C01C0FF
:102F1000B92CA4FE0FC0FE01E80DF11D80818033A5
:102F200021F49A2D997EA92E09C0A2FE06C0B39461
:102F3000B39404C08A2D867809F0B394A3FC11C021
:102F4000A0FE06C0B21488F4280C922C9B180EC068
:102F5000B21460F4B60180E290E00E941518B394B8
:102F6000F7CFB21418F42B1802C0982C212CA4FE11
:102F700010C0B60180E390E00E941518A2FE17C0B1
:102F8000A1FC03C088E790E002C088E590E0B601AC
:102F90000CC08A2D867859F0A1FE02C08BE201C0D8
:102FA00080E2A7FC8DE2B60190E00E94151889141A
:102FB00038F4B60180E390E00E9415189A94F7CF98
:102FC0008A94F301E80DF11D8081B60190E00E9422
:102FD00015188110F5CF222009F442CEB60180E207
:102FE00090E00E9415182A94F6CFF6018681978109
:102FF00002C08FEF9FEF2B96E2E10C94AC12FC0124
:103000000590615070400110D8F7809590958E0F13
:103010009F1F0895FC016150704001900110D8F786
:10302000809590958E0F9F1F08950F931F93CF93B8
:10303000DF93FB01238121FD03C08FEF9FEF2CC0A5
:1030400022FF16C0468157812481358142175307DC
:1030500044F4A081B1819D012F5F3F4F31832083D4
:103060008C93268137812F5F3F4F3783268314C08F
:103070008B01EC01FB010084F185E02D0995892B82
:10308000E1F6D80116968D919C91179701961796A7
:103090009C938E931697CE01DF91CF911F910F9144
:1030A0000895FA01AA27283051F1203181F1E894DE
:1030B0006F936E7F6E5F7F4F8F4F9F4FAF4FB1E02B
:1030C0003ED0B4E03CD0670F781F891F9A1FA11D26
:1030D000680F791F8A1F911DA11D6A0F711D811D27
:1030E000911DA11D20D009F468943F912AE0269FEC
:1030F00011243019305D3193DEF6CF010895462F4B
:103100004770405D4193B3E00FD0C9F7F6CF462F2B
:103110004F70405D4A3318F0495D31FD4052419394
:1031200002D0A9F7EACFB4E0A69597958795779551
:103130006795BA95C9F700976105710508959B01D8
:10314000AC010A2E06945795479537952795BA9561
:10315000C9F7620F731F841F951FA01D089510E00B
:10316000CFEDD0E004C0FE010E94EF122196C03ED8
:08317000D107C9F7F894FFCF65
:103178000000B503800000000000EC025A07A90314
:103188006D068F06AD03CA02C702C102BB02B502B3
:10319800AF02AE02A802A2029C02960290028A0224
:1031A80084027E02780272026C02660260020000EB
:1031B800000065010000000065018F0665016501DA
:1031C8006501000000004E02D206AB03A703990375
:1031D8000000000071010A013401BE0138024301F8
:1031E8005701000000000C030A0196030B035C035F
:1031F8007403F30263656C6C5600426174310042DB
:103208006174320054656D70310054656D70320020
:103218004675656C25004675656C0052504D004139
:103228006C7400436C696D624C00436C696D623369
:103238007300437572004D61696E566F6C0043618F
:1032480070005370656564004D696E566F6C436518
:103258006C0052504D320050726573737572650080
:1032680053746172742050616765005365636F6EB3
:1032780064205061676500256325732569004D69E1
:103288006E416C61726D004D6178416C61726D00C8
:103298002020202020004C696E6520312028696E8E
:1032A80074293A200056616C7565004C696E65207A
:1032B8003228737472293A20002563257325730018
:1032C8004C696E65203328666C6F6174293A20005A
:1032D8004C696E6520353A20004C696E6520363A97
:0C32E80020004C696E6520373A20000081
:00000001FF
